:020000040000FA
:10000000B201202A0408A0002A0884002B088500D9
:1000100020088000AA0A03141D2AB216B21EB212CA
:1000200032191728FE39B300321503101D2A321A6F
:100030001F28A60032163A2003182428260841203B
:1000400003182428B21E1D2A31205C2032113212DE
:10005000B2113808850036088038840034088004DE
:10006000392838088500360884003409800584174B
:100070008005080029205C20312056203308B21961
:100080000138A2000830A300A20D03182920031C88
:1000900031205C205620A30B442829205C203808FE
:1000A00085003608840034080005FF3E39088500C5
:1000B0003708840035093628390885003708840058
:1000C00035082F28083033190130A300A201380861
:1000D00085003608840034098005841780050730C0
:1000E00085213408800406308521340884130005F6
:1000F000FF3E331DA20C3319A20D32308521A30B14
:100100006B28220803141D2AA2000830331901307D
:10011000A300380885003608840034098005841758
:100120008005063085213408A20C0318800437307E
:1001300085213408800409308521A30B8B28031402
:100140001D2AB31C1D2AA728B300331C1D2A3808FA
:10015000850036088038840034088004841334090C
:100160008005841780050130A100E0308621340825
:1001700080040130A100E0308629B4002008210469
:1001800003191D2AA10AA301A401340947218413DC
:100190001D222208A30700083404031C3406800033
:1001A000A40A0319A0030319A10BC8283408432982
:1001B0008600290803191D2A18221E00A903D92820
:1001C000B31329080319B3170530A8002730A3007B
:1001D0001030F6200330A300E830F620A30164308D
:1001E000F620A3010A30F6202408FD28A2002508E5
:1001F000A1002408A000EC212008A000A8030319F6
:10020000B313290803190729280203180800200836
:10021000031DB313B31B0800303E182A0830A60094
:100220003908850037088400350833193E21331D0D
:100230004021841338088700360880388600340946
:100240008105260803191D2A331891218613A10C54
:10025000A00C01083404031C340681003221A60BD3
:1002600027291D2A35088006000036293729382914
:1002700039293A293B293C2980060800800446296F
:10028000FF3A80054729841780041D2AFF3A841706
:1002900080051D2A1F3909350935013821009D00C7
:1002A00020000030A1003230862121009D149D18CD
:1002B00057291C082000A10021001B081D2A23002B
:1002C000151413082300910A0319920A1D2A8901A3
:1002D000230093000430950055309600AA30960014
:1002E0009514951871291511910A0319920A1D2A5E
:1002F000A301A200FF30A207031CA307031C1D2AB1
:100300000330A100E73086217A29A101A000000076
:10031000023064000310A03B0301A13B03188929AC
:100320000800A201A3019829A10CA00CA20DA30D05
:10033000FF3E031894292308A1002208A0001D2ACB
:10034000A035A10DFF3E0318A02920081D2AA136C3
:10035000A00CFF3E0318A72920081D2AA301A20014
:100360000230C329A101A301A2000330C329A200C6
:100370000130C329A2000630C329A301A200043022
:10038000C329A2000530A80023082102031DCA29A1
:100390002208200204300318013003190230280516
:1003A000031DFF301D2A0038031DFF300405031D07
:1003B000FF301D2A0404031DFF301D2AA20020085F
:1003C000A6002408A0002608A4002108A6002508ED
:1003D000A1002608A500EE29A501A4011030A60061
:1003E000210DA40DA50D2208A4022308A53B031886
:1003F000FE292208A4072308A53D0310A00DA10D86
:10040000A60BF02920081D2A1030A800A101A00188
:10041000A70CA60C031C102A2208A0072308A13D44
:10042000A10CA00CA50CA40CA80B082A24081D2ABA
:10043000840031088A00300882002000640008002F
:100440002100F030990002308C00200010308C0028
:10045000220010308C00230002308C0024008C011C
:1004600027009C01210003308E0020008E01220015
:100470008E01230003308E0024008C0121009501A1
:100480009D01F0309E0022009101920193019401A0
:1004900020008231DD2A6D156D08EB000F306D05EF
:1004A000FC00FD01F030210030052000FE00FF01BE
:1004B0007C087E04ED00FB306D05EC000F306B0511
:1004C000FC00FD01210030082000A000A101043043
:1004D0008131A221FE002108FF00F030FE0500302E
:1004E000FF057C087E04EB00FB306B05EA000E3054
:1004F000B6000030B8002030B4000E30B700003035
:10050000B9001030B5004F3080310F206D088031B8
:100510000F206C0880310F206B0880310F206A0893
:1005200080310D20640021003208003C823120001F
:1005300003199F2A21003208200081317821080008
:100540003A302A02FC0000302B3BFD007C032100E6
:10055000A900AF012000640021002F082902823188
:100560002000031CDC2A21002F083A3E84000030C2
:100570008501853D00082000FC0064007C08FE3CED
:100580008231031DC62A6D108231D72A21002F081F
:100590003A3E840000308501853D0008B00020000F
:1005A00082314B22640082316D18D72A6D142100EC
:1005B000AF0A2000031DCF330800ED106D1021009D
:1005C0001430B2002000ED15323081317821210045
:1005D0003330B000200082314B2221003230B00095
:1005E000200082314B2221002830B00020008231CF
:1005F0004B2221000830B000200082314B22210024
:100600000130B000200082314B2221000630B000C2
:10061000200082314B2221000C30B00020008231BA
:100620004B2221000130B000200082314B222100FA
:10063000B20120008331AB2B6808A6006908A7002F
:100640006430A200A30182310422E2002508E30005
:10065000A30119308131DE21E8002108E900680892
:10066000A6006908A7000230A200A301823104227B
:10067000E8002508E90068082100B80038132000C8
:100680006808A0006908A10006308131A921F8009E
:100690002108F9002100331020000C1221000C1257
:1006A0000C302000B6000030B8002030B4000C3010
:1006B000B7000030B9000430B5000130B30078084D
:1006C000A0007908A1000B3081310F2121003808EA
:1006D0002000A000A101073081310F21210000304E
:1006E000331801302000A000A101013081310F2119
:1006F0000C1621000C12331420000C1221000C12D5
:100700000C302000B6000030B8002030B4000C30AF
:10071000B7000030B9000430B5000130B30001303B
:10072000A000A101013081310F218030A0000230F2
:10073000A1000E3081310F2121000030331801302B
:100740002000A000A101013081310F210C162100F1
:100750000C122000080021000E1423000E142000AB
:100760008431BE2C2100B3103311B31104302000AA
:1007700081314A21DC002108DD005C08A0005D0811
:10078000A1000330A300E8308131B4218431031D7E
:100790008C2C2100AE0120006400063021002E02C6
:1007A000833120000318FA2B5C08A0005D08A1002B
:1007B0000330A300E8308131BE218331031DE72BD4
:1007C000043081314A21DC002108DD00ED332100B5
:1007D0002E3584008501850D503084070030853D1D
:1007E00020005C081A005D0880002100AE0A20008D
:1007F000031DD23350085207FC005108533DFD0041
:100800005408FC075508FD3D5608FC075708FD3DF8
:100810005808FC075908FD3D7C085A07DC007D0894
:100820005B3DDD005C08A0005D08A1000630A20071
:10083000A3018131EC21DC002108DD005C08A0006F
:100840005D08A100A301BE308131B721FC005C0826
:10085000A0005D08A1000130A30022308131BE213B
:10086000FE007C0884007E088131D321FE00FF0059
:1008700064007E087F0484310319422C2100B314E4
:10088000200008005C08A0005D08A1000330A30060
:1008900002308131B721FC005C08A0005D08A10096
:1008A0000330A30066308131BE21FE007C08840045
:1008B0007E088131D321FE00FF0064007E087F04A2
:1008C00084310319672C21003315200008005C08CF
:1008D000A0005D08A1000230A30031308131B721B2
:1008E000FC005C08A0005D08A1000230A300953068
:1008F0008131BE21FE007C0884007E088131D32135
:10090000FE00FF0064007E087F04843103198C2CF4
:100910002100B3152000080008008331B223030131
:100920002100B318FF302000FC000301210033191F
:10093000FF302000FE007C0884007E088131DA212F
:10094000FE00FF0003012100B319FF30A0002000CA
:100950007E087F0484002100200820008131DA21F4
:100960002100A000A100640020082104843120009F
:100970000319BD2C8331B223D23308000130FA00B1
:10098000FB01EE01EF0121000130BB000330BA0092
:100990003A082000F400F501F601F701F201F30135
:1009A00021000130B700A701A801A401A501200082
:1009B000DA01DB01DE01DF012100AA01AC01200028
:1009C000E001E101230091019201643020008131B6
:1009D0006821230001309100920101302000813113
:1009E00068212300033091009201193020008131E9
:1009F00068212300043091009201503020008131A1
:100A0000682123000530910092016430200081317B
:100A100068219631DE2689313121C8308131782133
:100A2000953158258831F9200530A300DC3081311B
:100A300079218331B2236400853121008310B31DF5
:100A4000831420008318412D210027082000FA007C
:100A5000FB0121002808BB0064002708FF3C85310A
:100A60002000031D3F2DFA01FB012100BB012000E6
:100A7000E930E8000330E9002100B60120008531AB
:100A8000832DFF30A000FF30A1006908A300680893
:100A90008131C1218531031D5D2DEE01EF01FA0188
:100AA000FB012100B601BB012000E930E800033062
:100AB000E9008531832D8531832DFA01FB01210069
:100AC000BB010330BA00331220008C3149248D3130
:100AD00015252100BA0120006400033021003A02EC
:100AE0008531200003187B2D9131AF212100BA0AF6
:100AF0002000031DF1339331162383311C239731DA
:100B00003B278531C02D8C3149248C31F4242100C0
:100B10003312BA0120006400033021003A0285310B
:100B2000200003189A2D9131AF212100BA0A20002C
:100B3000031DF1333A30AA00AB01FE3080310320AF
:100B4000903080310320FE30803103200F3080311F
:100B500003208231A02284318D240330F400F5017A
:100B6000F601F7010330F200F30121000130B70074
:100B7000B3160330BA009030B50020008631A42EA1
:100B80008331B2236400853121008310B31D8314A7
:100B900020008318D12D2100A201A301200087315C
:100BA000DC272100A201A301640086318310331EDB
:100BB000831420008318192E88316E207208A0003B
:100BC0007308A1002100360820008131AE21863152
:100BD000031D192E2100E230B500200092311E22A3
:100BE00072082100B60036082000A600A7010F30C9
:100BF000A200A30182310422FC002508FD007C082C
:100C0000A0007D08A1006430A200A3018131EC2185
:100C1000FC002108FD0010307C07EE0000307D3D17
:100C2000EF006E0822009900A03098002000843167
:100C30008D246400863121008310331A8314200030
:100C40008318242E96312B267A08A0007B08A10059
:100C50002100270820008131B321FC00030121007D
:100C6000331EFF302000FE007C0884007E088131A6
:100C7000D321FE00FF0064007E087F048631031943
:100C8000452E973134278D31A32D21003B082000BC
:100C9000A0002100280820008131B221FC000301BE
:100CA0002100331EFF302000FE007C0884007E08F7
:100CB0008131D321FE00FF0064007E087F0486316D
:100CC0000319662E973134278D31A32D93311623C6
:100CD00021003B0820007A07FC0003017B3DFD005A
:100CE0007008FC077108FD3D6608A0006708A100B8
:100CF0007D08A3007C088131AF218631031DA32E1E
:100D000021003B0820007A07FC0003017B3DFD0029
:100D10007C087007E6007D08713DE7002100013086
:100D2000BA0020006400043021003A02863120001D
:100D30000318A12E9131AF212100BA0A2000031D12
:100D4000F13384318D241C338331B22388316E20FA
:100D500072082100BA0064003A082B028631200094
:100D60000319D92E21003A08AB003A08033C86311A
:100D70002000031CCA2E21003A0820008631C52617
:100D80002100B50020008631CA2E0B00E034A634C5
:100D9000CF3490343A30AA00AB01FE3080310320CA
:100DA000210035082000803103208231A0228431C7
:100DB0008D246400873121008310B31D831420002B
:100DC0008318962F3A30AA00AB01FE308031032001
:100DD00021003508200080310320FE3080310320BF
:100DE0000E30803103208231A022640021003A08B5
:100DF000033C87312000031D192F6808F2006908A1
:100E0000F3003830F4000430F5006630F6000330AB
:100E1000F70021000130B700B312200084318D2487
:100E2000873197277208E8007308E9000330F20061
:100E3000F301640021003A08023C87312000031DC1
:100E40003B2F21003B082000F200F3015030F4005A
:100E5000F501F601F70121000530B700B3162000B7
:100E600084318D248731972772082100BB00200030
:100E70000230F200F301640021003A08013C87319E
:100E80002000031D5C2F7A08F2007B08F300193064
:100E9000F400F501F601F70121000230B700B312AA
:100EA000200084318D24873197277208FA00730857
:100EB000FB000130F200F301640021003A08003C1D
:100EC00087312000031D962F97310A279631DE26A1
:100ED000210033122000E601E7018C3149248D31D5
:100EE00015252100BA0120006400033021003A02D8
:100EF000873120000318832F9131AF212100BA0AD6
:100F00002000031DF133210036082000F200F30118
:100F10002100E230B500200092311E2283311C23D3
:100F200097313B2784318D248531C02D0D3383319A
:100F3000B22388316E207208A0007308A1006508F2
:100F4000A30064088131AF218731031DAF2F7208E0
:100F5000E4007308E50092311E2284318D24640080
:100F6000873121008310B31D831420008318DB2FE9
:100F700021002B08BA0020003A30AA00AB01FE3055
:100F80008031032021003508200080310320FE300D
:100F9000803103200F30803103208231A0220330C2
:100FA000F400F501F601F70121000130B70020003F
:100FB00084318D240800BB33640088312100831004
:100FC000B31D8314200083186D286400883121002C
:100FD0008310331E8314200083180A283A30AA0095
:100FE000AB01FE30803103200C3080310320823190
:100FF000A022230005309100920121003608200034
:101000008131682121003312A201A3012000843123
:101010008D2408006400883121008310B31D8314DF
:101020002000831869288331B2230A308131782166
:101030002100A20A0319A30A22082000A00021000F
:1010400023082000A100A301DC308131BE218831BA
:10105000031D56283A30AA00AB01FE308031032030
:10106000E23080310320FE30803103200F308031A8
:101070000320FE3080310320E230803103208231B2
:10108000A0222100E230B50036082000F200F30172
:101090006430F400F501F601F70121000230B700D9
:1010A000B316331620008D31562508002100220882
:1010B0002000A000210023082000A1000230A3008E
:1010C00008308131BE218831031D68288B314F23C0
:1010D000A1332100A201A30120000800640088318F
:1010E00021008310331D831420008318B328720855
:1010F000A0007308A1007708A30076088131BA2107
:10110000FC0003012100B31AFF302000FE007C0820
:1011100084007E088131D321FE00FF0064007E0838
:101120007F04883103199C287608F2007708F300C1
:1011300050308131782108007208A0007308A100A6
:101140007708A30076088131B7218831031DAD28C7
:101150007408F2007508F300080021003708200029
:10116000F202031CF3036400883121008310B31CD6
:10117000831420008318F8287208A0007308A100C7
:101180007508A30074088131B421FC00030121001B
:10119000B31AFF302000FE007C0884007E088131F5
:1011A000D321FE00FF0064007E087F04883103190C
:1011B000E1287408F2007508F3005030813178217D
:1011C00008007208A0007308A1007508A300740845
:1011D0008131BE218831031DF2287608F20077089C
:1011E000F3000800210037082000F2070318F30A73
:1011F00008003A30AA00AB01FE30803103200130F4
:10120000803103208231A0220A30813178213A30A6
:10121000AA00AB01FE3080310320993080310320D9
:101220004230803103204930803103204530803105
:1012300003204E308031032056308031032045306A
:10124000803103204E30803103204930803103202B
:101250004430803103204F30803103208231A0227E
:1012600008003A30AA00AB01FE3080310320013083
:10127000803103208231A0220A30813178213A3036
:10128000AA00AB01FE3080310320403080310320C2
:10129000013080310320023080310320063080315C
:1012A00003200430803103200C30803103200830CB
:1012B000803103201930803103201B30803103201E
:1012C0008231A0223A30AA00AB01FE3080310320E7
:1012D00048308031032000308031032000308031DD
:1012E000032000308031032008308031032010308B
:1012F0008031032010308031032001308031032001
:101300000B30803103208231A0223A30AA00AB0199
:10131000FE30803103205030803103200030803196
:101320000320003080310320003080310320023060
:1013300080310320013080310320013080310320CF
:101340001030803103201A30803103208231A022F6
:101350003A30AA00AB01FE30803103205830803192
:1013600003201030803103200830803103200C30FE
:101370008031032004308031032006308031032087
:101380000330803103201330803103201B30803143
:1013900003208231A0223A30AA00AB01FE30803116
:1013A00003206030803103201B308031032019304E
:1013B000803103200830803103200C30803103203D
:1013C0000430803103200630803103200230803128
:1013D00003200130803103208231A0223A30AA005C
:1013E000AB01FE30803103206830803103200B30A8
:1013F0008031032001308031032010308031032000
:101400001130803103200B308031032003308031D4
:1014100003200730803103200F30803103208231D8
:10142000A0223A30AA00AB01FE3080310320703098
:10143000803103201A3080310320103080310320A6
:101440000130803103201130803103201A30803187
:1014500003201830803103201C30803103201E30DF
:10146000803103208231A0223A30AA00AB01FE3045
:10147000803103207830803103201B3080310320FD
:101480001330803103200230803103200630803158
:1014900003200430803103200C30803103200830D9
:1014A000803103201030803103208231A0223A3075
:1014B000AA00AB01FE3080310320013080310320CF
:1014C0008231A0220A30813178213A30AA00AB0162
:1014D000FE308031032080308031032000308031A5
:1014E000032001308031032002308031032003309B
:1014F00080310320FE3080310320C0308031032052
:1015000004308031032005308031032006308031E3
:1015100003200730803103208231A0222100A60160
:10152000200064000730210026028A3120000318C1
:10153000AC2A3A30AA00AB01FE30803103201C30C7
:10154000803103208231A022643081317821210052
:10155000A60A2000031DE5333A30AA00AB01FE3095
:10156000803103201030803103208231A0220530E9
:101570008131782164308131782121005030B200EE
:1015800020003A30AA00AB01FE30803103208E30BB
:10159000803103204A30803103202D3080310320F8
:1015A0005430803103204530803103204C3080316D
:1015B00003204530803103204330803103205430F4
:1015C000803103205230803103204F30803103209E
:1015D0004E30803103204930803103204330803148
:1015E00003202730803103205330803103208231A3
:1015F000A0223A30AA00AB01FE3080310320CD306A
:101600008031032077308031032077308031032010
:101610007730803103202E308031032072308031CA
:101620000320613080310320643080310320693031
:10163000803103206F3080310320653080310320FA
:101640006E30803103206C30803103206130803176
:1016500003206330803103206530803103202E3039
:10166000803103206330803103206C3080310320CF
:101670008231A0222100B20120003A30AA00AB0141
:10168000FE30803103201C3080310320FE30803159
:1016900003201030803103208231A02208003A302C
:1016A000AA00AB01FE3080310320013080310320DD
:1016B0008231A0220A30813178213A30AA00AB0170
:1016C000FE3080310320803080310320453080316E
:1016D00003205330803103205430803103204F30B9
:1016E000803103202030803103204C3080310320B2
:1016F0004F3080310320203080310320483080314A
:1017000003204930803103205A30803103204F308C
:10171000803103202030803103208231A0223A30F2
:10172000AA00AB01FE3080310320C030803103209D
:1017300052308031032041308031032044308031E9
:1017400003204930803103204F30803103204D3059
:10175000803103204130803103205230803103201A
:101760004330803103208231A0223A30AA00AB01FD
:10177000FE30803103209430803103204C308031A2
:1017800003204130803103204E308031032043302C
:10179000803103204F3080310320203080310320FE
:1017A0002D308031032020308031032032308031D1
:1017B0000320303080310320323080310320353037
:1017C000803103208231A0223A30AA00AB01FE30E2
:1017D00080310320D4308031032053308031032006
:1017E000493080310320543080310320453080312E
:1017F00003205430803103204930803103205A3097
:101800008031032041308031032044308031032077
:101810004F30803103205230803103208231A022AA
:1018200084318D243A30A300983081317921080029
:101830009631DE26210033122000E601E7018C31CB
:1018400049248D3115252100BA01200064000330A0
:1018500021003A028C3120000318352C9131AF2140
:101860002100BA0A2000031DF133210036082000B0
:10187000F200F3012100E230B500200092311E2277
:1018800084318D2421003312A201A301200085316F
:10189000C02D3A30AA00AB01FE3080310320013068
:1018A000803103208231A0220A30813178213A3000
:1018B000AA00AB01FE30803103208030803103204C
:1018C0004630803103205230803103204530803152
:1018D00003204330803103205530803103204530D0
:1018E000803103204E30803103204330803103208B
:1018F0004930803103204130803103203A3080313B
:101900000320FE30803103208F30803103202E30C1
:10191000803103202030803103204D30803103207E
:101920004830803103205A30803103208231A02298
:101930003A30AA00AB01FE3080310320C030803144
:1019400003205430803103204530803103204D3056
:101950008031032050308031032045308031032016
:1019600052308031032041308031032054308031A7
:101970000320553080310320523080310320413024
:10198000803103203A3080310320FE308031032043
:10199000D03080310320DF3080310320433080316C
:1019A00003208231A0223A30AA00AB01FE30803100
:1019B0000320A030803103205230803103204F308B
:1019C000803103204530803103203A3080310320BC
:1019D000FE3080310320A730803103205730803122
:1019E00003208231A02208003A30AA00AB01FE3069
:1019F00080310320DA3080310320413080310320F0
:101A00004330803103204530803103205030803115
:101A10000320543080310320413080310320523084
:101A2000803103208231A02208003A30AA00AB01A5
:101A3000FE308031032094308031032050308031DB
:101A400003205730803103204F30803103203A305B
:101A500080310320FE30803103209D30803103200F
:101A600057308031032020308031032020308031F6
:101A700003208231A0220A30813178213A30AA0035
:101A8000AB01FE3080310320D4308031032056304A
:101A9000803103204F30803103204C3080310320CF
:101AA0003A30803103208231A02208003A30AA0067
:101AB000AB01FE30803103200130803103208231C0
:101AC000A0220A30813178213A30AA00AB01FE30E1
:101AD00080310320D4308031032041308031032015
:101AE0004A3080310320553080310320533080311B
:101AF00003205430803103204530803103202030D2
:101B0000803103205030803103204F30803103205A
:101B10005730803103203A3080310320FE3080314D
:101B20000320E23080310320203080310320253033
:101B300080310320FE30803103200C3080310320BF
:101B40008231A02208003A30AA00AB01FE30803179
:101B500003200130803103208231A0220A308131FC
:101B600078213A30AA00AB01FE3080310320873063
:101B7000803103204130803103204C3080310320FC
:101B80004130803103205230803103204D3080318C
:101B900003204130803103208231A0227A08A00046
:101BA0007B08A1002100270820008131BD218D3153
:101BB000031DFF2D3A30AA00AB01FE308031032017
:101BC000C93080310320A9017A08A4007B08A50050
:101BD0000230B000B1018031E02057308031032065
:101BE000FE3080310320DC308031032052308031E0
:101BF00003204F3080310320453080310320823173
:101C0000A0226400210028083B028E312000031C22
:101C10004A2E3A30AA00AB01FE3080310320C93091
:101C200080310320A90121003B082000A400A50168
:101C30000230B000B1018031E020DF30803103207C
:101C4000433080310320FE3080310320D930803191
:101C500003205430803103204530803103204D3043
:101C60008031032050308031032045308031032003
:101C70005230803103204130803103205430803194
:101C80000320553080310320523080310320413011
:101C9000803103208231A0223A30AA00AB01FE300D
:101CA0008031032040308031032004308031032014
:101CB0000230803103200130803103200030803138
:101CC000032010308031032008308031032004309D
:101CD000803103200030803103208231A0223A304D
:101CE000AA00AB01FE308031032048308031032050
:101CF00001308031032003308031032002308031F5
:101D000003200630803103200430803103200D3061
:101D100080310320193080310320113080310320BD
:101D20008231A0223A30AA00AB01FE30803103207C
:101D30005030803103201030803103201830803142
:101D400003200830803103200C3080310320043020
:101D5000803103201630803103201330803103207E
:101D60001130803103208231A0223A30AA00AB0129
:101D7000FE30803103205830803103200430803120
:101D800003200830803103201030803103200030E0
:101D90008031032001308031032002308031032064
:101DA0000430803103200030803103208231A022B2
:101DB0003A30AA00AB01FE30803103206030803120
:101DC00003201130803103200B3080310320063096
:101DD000803103200C308031032008308031032013
:101DE0001830803103201030803103201F308031C3
:101DF00003208231A0223A30AA00AB01FE308031AC
:101E0000032068308031032001308031032001300D
:101E100080310320003080310320033080310320E3
:101E200003308031032003308031032000308031C3
:101E300003201F30803103208231A0223A30AA00D3
:101E4000AB01FE3080310320703080310320103030
:101E50008031032010308031032000308031032096
:101E60001830803103201830803103201830803141
:101E700003200030803103201F3080310320823165
:101E8000A0223A30AA00AB01FE3080310320783026
:101E9000803103201130803103201A30803103203B
:101EA0000C30803103200630803103200230803135
:101EB00003200330803103200130803103201F30A4
:101EC000803103208231A0223A30AA00AB01FE30DB
:101ED00080310320803080310320003080310320A6
:101EE0000130803103200230803103200330803103
:101EF0000320FE3080310320C030803103200430C5
:101F000080310320053080310320063080310320EA
:101F10000730803103208231A0223A30AA00AB0181
:101F2000FE3080310320903080310320003080313A
:101F30000320013080310320023080310320033040
:101F400080310320FE3080310320D03080310320E7
:101F50000430803103200530803103200630803189
:101F600003200730803103208231A0220230A300F9
:101F7000583081317921ED113A30AA00AB01FE30A1
:101F8000803103200C30803103208231A0227F3049
:101F9000A2005030A000A1010E3084000030850066
:101FA00004308031BD20FA3081317821ED153A308E
:101FB000AA00AB01FE30803103200C3080310320B9
:101FC0008231A0227F30A2005030A000A1010E304B
:101FD00084000030850004308031BD2032308131F2
:101FE0007821ED113A30AA00AB01FE308031032098
:101FF0000C30803103208231A0227F30A20050308B
:10200000A000A1010E308400003085000430803132
:10201000BD20FA3081317821ED153A30AA00AB01AC
:10202000FE30803103200C30803103208231A02229
:102030003A30AA00AB01FE3080310320C630803137
:1020400003202030803103202030803103202030D5
:102050008031032020308031032020308031032064
:102060002030803103202030803103202030803127
:1020700003202030803103208231A0223A30AA0090
:10208000AB01FE308031032040308031032000302E
:102090008031032000308031032000308031032064
:1020A0000030803103200030803103200030803147
:1020B0000320003080310320003080310320823142
:1020C000A0223A30AA00AB01FE3080310320483014
:1020D0008031032001308031032003308031032020
:1020E00002308031032006308031032004308031FB
:1020F00003200C3080310320183080310320103051
:10210000803103208231A0223A30AA00AB01FE3098
:102110008031032050308031032010308031032083
:102120001830803103200830803103200C3080319A
:102130000320043080310320063080310320033037
:10214000803103200130803103208231A0223A30D7
:10215000AA00AB01FE3080310320583080310320CB
:102160000030803103200030803103200030803186
:102170000320003080310320003080310320003004
:102180008031032000308031032000308031032073
:102190008231A0223A30AA00AB01FE308031032008
:1021A00060308031032001308031032003308031E2
:1021B00003200630803103200C30803103200830AA
:1021C000803103201830803103201030803103200B
:1021D0001F30803103208231A0223A30AA00AB01A7
:1021E000FE308031032068308031032000308031A0
:1021F0000320003080310320003080310320003084
:1022000080310320003080310320003080310320F2
:102210000030803103201F30803103208231A02222
:102220003A30AA00AB01FE3080310320703080319B
:102230000320003080310320003080310320003043
:1022400080310320003080310320003080310320B2
:102250000030803103200030803103201F30803176
:1022600003208231A0223A30AA00AB01FE30803137
:102270000320783080310320103080310320183063
:10228000803103200C308031032006308031032060
:10229000023080310320033080310320013080314F
:1022A00003201F30803103208231A0223A30AA005F
:1022B000AB01FE30803103208030803103200030BC
:1022C000803103200130803103200230803103202F
:1022D000033080310320FE3080310320C030803154
:1022E0000320043080310320053080310320063084
:1022F000803103200730803103208231A0223A3020
:10230000AA00AB01FE3080310320903080310320E1
:1023100000308031032001308031032002308031D1
:102320000320033080310320FE3080310320D03081
:1023300080310320043080310320053080310320B8
:102340000630803103200730803103208231A02203
:102350000230A3005830813179218D31A32D6400E2
:1023600021003A08003C91312000031DC129680872
:10237000F2006908F30021009030B500200092318E
:102380001E2A640021003A08013C91312000031DFF
:10239000D42921003B082000F200F3012100CF30B6
:1023A000B500200092311E2A640021003A08023C48
:1023B00091312000031DE6297A08F2007B08F30022
:1023C0002100A630B500200092311E2A64002100B1
:1023D0003A08033C91312000031DF8297008F200EF
:1023E0007108F30021009C30B500200092311E2AB4
:1023F00021003A08043C031DFF30FF3A2000FC0096
:1024000003012100331AFF302000FE007C08840005
:102410007E088131D321FE00FF0064007E087F0426
:10242000923103191E2A210036082000F200F30120
:102430002100E230B500200092311E2A7208A0006F
:102440007308A100A3010A308131B4219231031D28
:102450002E2A2100B10120009231632A7208A000C7
:102460007308A100A30164308131B4219231031DAE
:102470003F2A21000130B10020009231632A720806
:10248000A0007308A1000330A300E8308131B4211B
:102490009231031D512A21000230B10020009231F7
:1024A000632A7208A0007308A1002730A30010302F
:1024B0008131B4219231031D632A21000330B10020
:1024C00020009231632A640021003508903C92314B
:1024D0002000031DD92A3A30AA00AB01FE3080311A
:1024E00003200430210035022000FC00FD010030F3
:1024F000FD3B7C08803103202030803103202030D8
:1025000080310320203080310320203080310320AF
:10251000203080310320FE3080310320210031083B
:1025200035022000FC00FD01031CFD030130FC020C
:102530000030FD3B7C0880310320A9017208A00017
:102540007308A1000A30A200A3018131EC21FC0034
:102550002108FD007C08A4007D08A5000230B00021
:10256000B1018031E0202E3080310320A9017208B2
:10257000A0007308A1000A30A200A3018131EC2160
:102580002408FC002508FD007C08A4007D08A500A7
:102590000230B000B1018031E020FE3080310320F4
:1025A000210035082000803103208231A0229331A0
:1025B000152B3A30AA00AB01FE30803103200230E7
:1025C000210035022000FC00FD010030FD3B7C08AD
:1025D00080310320203080310320203080310320DF
:1025E000203080310320FE3080310320210031086B
:1025F00035022000FC00FD01031CFD037C08803136
:102600000320A9017208A4007308A5000230B000DD
:10261000B1018031E020FE308031032021003508F7
:102620002000803103208231A02208000630813151
:102630004A212100A400200021082100A50024082F
:102640002000A000210025082000A100A3013C30AB
:102650008131BE219331031D322B21003C30A40077
:10266000A5012000210024082000A0002100250849
:102670002000A100A30102308131B7219331031D55
:10268000B72B2100D830B4003408AA000130AD00C7
:10269000200064000F3021002D0293312000031828
:1026A000672B3A30AA00AB01FE30803103202100B5
:1026B0002A0820008031032020308031032082311D
:1026C000A0222100AA0AAD0A2000031DE2333A30FD
:1026D000AA00AB01FE3080310320D43080310320CA
:1026E0005630803103204F30803103204C30803110
:1026F00003203A3080310320203080310320203005
:1027000080310320203080310320203080310320AD
:102710002030803103202030803103202030803170
:1027200003202030803103202030803103202030EE
:10273000803103202030803103202030803103207D
:102740002030803103202030803103202030803140
:1027500003202030803103208231A0222100240870
:102760002000DA00210025082000DB0008005A08BC
:10277000A0005B08A100210025082000A300210083
:10278000240820008131AF219531031D552D3A30A9
:10279000AA00AB01FE30803103204030803103209D
:1027A0000030803103201030803103201030803120
:1027B000032010308031032010308031032010308E
:1027C000803103201030803103200030803103201D
:1027D0008231A0223A30AA00AB01FE3080310320C2
:1027E00048308031032000308031032018308031A0
:1027F0000320183080310320183080310320183036
:1028000080310320183080310320183080310320BC
:102810000030803103208231A0223A30AA00AB017F
:10282000FE30803103205030803103200030803171
:1028300003201C30803103201C30803103201C30E9
:10284000803103201C30803103201C308031032074
:102850001C30803103200030803103208231A022DF
:102860003A30AA00AB01FE3080310320583080316D
:1028700003200030803103201E30803103201E30C1
:10288000803103201E30803103201E308031032030
:102890001E30803103201E30803103200030803113
:1028A00003208231A0223A30AA00AB01FE308031F1
:1028B00003206030803103200030803103201F303E
:1028C000803103201F30803103201F3080310320EE
:1028D0001F30803103201F30803103201F308031B2
:1028E00003200030803103208231A0223A30AA0038
:1028F000AB01FE308031032068308031032012307C
:10290000803103201B3080310320003080310320D0
:102910000430803103201130803103200E308031AB
:1029200003200030803103200030803103208231C9
:10293000A0223A30AA00AB01FE3080310320703073
:10294000803103200030803103201B308031032090
:102950000930803103200430803103200030803181
:1029600003200E30803103201130803103200030ED
:10297000803103208231A0223A30AA00AB01FE3020
:10298000803103207830803103201F3080310320D4
:102990000A30803103201F30803103200A3080311B
:1029A00003201F30803103200A30803103201F3084
:1029B000803103201530803103208231A022210094
:1029C00024082000DA00210025082000DB00210077
:1029D000D830B4003408AA000130AD0020006400F3
:1029E0000F3021002D029531200003180D2D3A30B3
:1029F000AA00AB01FE308031032021002A0820000C
:102A0000803103201430803103208231A022210044
:102A1000AA0AAD0A2000031DE23321002408200089
:102A2000A000210025082000A100A301063081316B
:102A3000B4219531031D212D2100B90120009531CC
:102A4000312D210024082000A000210025082000AD
:102A5000A1000630A200A3018131EC212100B900C0
:102A6000200021003408AA000130AD0020006400DD
:102A700021002D08390295312000031C552D3A30D4
:102A8000AA00AB01FE308031032021002A0820007B
:102A9000803103200430803103208231A0222100C4
:102AA000AA0AAD0A2000031DE23308006400FE33C9
:102AB000ED113A30AA00AB01FE30803103200C301A
:102AC000803103208231A0227F30A2006430A00038
:102AD000A1010E3084000030850004308031BD201B
:102AE000643081317821ED153A30AA00AB01FE3017
:102AF000803103200C30803103208231A0227F30CE
:102B0000A2009630A000A1010E30840000308500A4
:102B100004308031BD20643081317821ED113A30AC
:102B2000AA00AB01FE30803103200C30803103203D
:102B30008231A0227F30A200C830A000A1010E3057
:102B400084000030850004308031BD209630813112
:102B50007821ED153A30AA00AB01FE308031032018
:102B60000C30803103208231A0227F30A200FA3065
:102B7000A000A1010E3084000030850004308031B7
:102B8000BD20C83081317821ED113A30AA00AB0167
:102B9000FE30803103200C30803103208231A022AE
:102BA0007F30A2002C30A0000130A1000E30840044
:102BB0000030850004308031BD200130A3002C306E
:102BC00081317921ED153A30AA00AB01FE30803118
:102BD00003200C30803103208231A0227F30A200FC
:102BE0005030A000A1010E30840000308500043078
:102BF0008031BD20643081317821ED113A30AA0056
:102C0000AB01FE30803103200C3080310320823153
:102C1000A0227F30A2005030A000A1010E3084001D
:102C20000030850004308031BD200130A3002C30FD
:102C300081317921ED153A30AA00AB01FE308031A7
:102C400003200C30803103208231A0220E110A3083
:102C50008131782108000E30B6000030B80008300D
:102C6000B40001308031A420CC3080318420443045
:102C7000803184208031A1200A30813178210E30CA
:102C8000B6000030B8000830B40001308031A42014
:102C9000CC3080318420BE30803184208031A1202E
:102CA0000E30B6000030B8000830B400003080317B
:102CB000A4200930A9006230B000B1018701BB3007
:102CC0008031D8208031A12021003B082000A000C5
:102CD000A10104308131A921FC00FD0121003C0843
:102CE0002000A000A10104308131A221FE002108B2
:102CF000FF007C087E042100BB0064003B08553CBB
:102D000096312000031D872E2100BB0120000130D9
:102D100081314A21FA002108FB007A08A6007B08CD
:102D2000A7000E30A200A30182310422FA00250878
:102D3000FB007A08A0007B08A1000A30A200A301D2
:102D40008131EC21FA002108FB00A001A1017B08E0
:102D5000A3007A088131C1219631031DB22E0130C2
:102D6000FA00FB01053081314A21F0002108F10011
:102D70007008A6007108A7000E30A200A3018231DE
:102D80000422F0002508F1007008A0007108A100DD
:102D90000A30A200A3018131EC21F0002108F100EA
:102DA000A001A1017108A30070088131C1219631F1
:102DB000031DDD2E0130F000F10108002300910118
:102DC0009201200081315F21E80023000130910051
:102DD0009201200081315F21E9002300033091003E
:102DE0009201200081315F212100A70023000430DF
:102DF00091009201200081315F212100A800230071
:102E0000053091009201200081315F212100B60040
:102E10002000080023009101920120006808813100
:102E2000682123000130910092012000690881315E
:102E30006821230003309100920120007A0881313B
:102E40006821230004309100920121003B082000FA
:102E5000813168212300053091009201210036085C
:102E60002000813168210800220098010A302000EA
:102E7000813178210800210036082000A600A70132
:102E80001F30A200A30182310422FC002508FD00AE
:102E90007C08A0007D08A1006430A200A30181315C
:102EA000EC21EE002108EF006E08220099000A30A4
:102EB0002000813178212200A03098000A302000C3
:062EC000813178210800B9
:020000040001F9
:02000E00A4C983
:02001000FFDD12
:00000001FF
