:020000040000FA
:10000000B201212A0408A0002A0884002B088500D8
:1000100020088000AA0A03141E2AB216B21EB212C9
:1000200032191728FE39B300321503101E2A321A6E
:100030001F28A60032163A2003182428260841203B
:1000400003182428B21E1E2A31205C2032113212DD
:10005000B2113808850036088038840034088004DE
:10006000392838088500360884003409800584174B
:100070008005080029205C20312056203308B21961
:100080000138A2000830A300A20D03182920031C88
:1000900031205C205620A30B442829205C203808FE
:1000A00085003608840034080005FF3E39088500C5
:1000B0003708840035093628390885003708840058
:1000C00035082F28083033190130A300A201380861
:1000D00085003608840034098005841780050730C0
:1000E00085213408800406308521340884130005F6
:1000F000FF3E331DA20C3319A20D32308521A30B14
:100100006B28220803141E2AA2000830331901307C
:10011000A300380885003608840034098005841758
:100120008005063085213408A20C0318800437307E
:1001300085213408800409308521A30B8B28031402
:100140001E2AB31C1E2AA728B300331C1E2A3808F7
:10015000850036088038840034088004841334090C
:100160008005841780050130A100E0308621340825
:1001700080040130A100E0308629B4002008210469
:1001800003191E2AA10AA301A401340947218413DB
:100190001E222208A30700083404031C3406800032
:1001A000A40A0319A0030319A10BC8283408432982
:1001B0008600290803191E2A19221E00A903D9281E
:1001C000B31329080319B3170530A8002730A3007B
:1001D0001030F6200330A300E830F620A30164308D
:1001E000F620A3010A30F6202408FD28A2002508E5
:1001F000A1002408A000ED212008A000A8030319F5
:10020000B313290803190729280203180800200836
:10021000031DB313B31B0800303E192A0830A60093
:100220003908850037088400350833193E21331D0D
:100230004021841338088700360880388600340946
:100240008105260803191E2A331891218613A10C53
:10025000A00C01083404031C340681003221A60BD3
:1002600027291E2A35088006000036293729382913
:1002700039293A293B293C2980060800800446296F
:10028000FF3A80054729841780041E2AFF3A841705
:1002900080051E2A1F3909350935013821009D00C6
:1002A00020000030A1003230862121009D149D18CD
:1002B00057291C082000A10021001B081E2A23002A
:1002C000151413082300910A0319920A1E2A8901A2
:1002D000230093000430950055309600AA30960014
:1002E0009514951871291511910A0319920A1E2A5D
:1002F000A301A200FF30A207031CA307031C1E2AB0
:100300000330A100E73086217A29A101A000000076
:10031000023064000310A03B0301A13B03188929AC
:100320000800A201A3019829A10CA00CA20DA30D05
:10033000FF3E031894292308A1002208A0001E2ACA
:10034000A035A10DFF3E0318A02920081E2AA136C2
:10035000A00CFF3E0318A72920081E2AA301A20013
:100360000230C429A101A301A2000330C429A301C2
:10037000A2000130C429A2000630C429A301A200B2
:100380000430C429A2000530A80023082102031D5F
:10039000CB2922082002043003180130031902304F
:1003A0002805031DFF301E2A0038031DFF300405F9
:1003B000031DFF301E2A0404031DFF301E2AA20065
:1003C0002008A6002408A0002608A4002108A600F2
:1003D0002508A1002608A500EF29A501A4011030D9
:1003E000A600210DA40DA50D2208A4022308A53BFB
:1003F0000318FF292208A4072308A53D0310A00D18
:10040000A10DA60BF12920081E2A1030A800A10179
:10041000A001A70CA60C031C112A2208A007230880
:10042000A13DA10CA00CA50CA40CA80B092A240822
:100430001E2A840031088A003008820020006400EF
:1004400008002100F030990002308C0020001030AC
:100450008C00220010308C00230002308C0024001D
:100460008C0127009C01210003308E0020008E01AA
:1004700022008E01230003308E0024008C01210015
:1004800095019D01F0309E0022009101920193019F
:10049000940120008231DE2A6D156D08EB000F30CB
:1004A0006D05FC00FD01F03021002D052000FE004F
:1004B000FF017C087E04ED00FB306D05EC000F3081
:1004C0006B05FC00FD0121002D082000A000A1010A
:1004D00004308131A221FE002108FF00F030FE052A
:1004E0000030FF057C087E04EB00FB306B05EA0062
:1004F0000E30B6000030B8002030B4000E30B70027
:100500000030B9001030B5004F3080310F206D0839
:1005100080310F206C0880310F206B0880310F2054
:100520006A0880310D20640021002F08003C8231D0
:1005300020000319A02A21002F08200081317821F2
:1005400008003A302A02FC0000302B3BFD007C03FF
:100550002100A700AC012000640021002C08270224
:1005600082312000031CDD2A21002C083A3E840041
:1005700000308501853D00082000FC0064007C08F7
:10058000FE3C8231031DC72A6D108231D82A21001A
:100590002C083A3E840000308501853D0008AD00FE
:1005A000200082314C22640082316D18D82A6D14EB
:1005B0002100AC0A2000031DCF330800ED106D10A0
:1005C00021001430AF002000ED1532308131782148
:1005D00021003330AD00200082314C222100323026
:1005E000AD00200082314C2221002830AD002000D7
:1005F00082314C2221000830AD00200082314C2293
:1006000021000130AD00200082314C222100063053
:10061000AD00200082314C2221000C30AD002000C2
:1006200082314C2221000130AD00200082314C2269
:100630002100AF0120008331AC2B6808A6006908B7
:10064000A7006430A200A30182310522E200250840
:10065000E300A30119308131DF21E8002108E9001E
:100660006808A6006908A7000230A200A301823131
:100670000522E8002508E90068082100B4003413C9
:1006800020006808A0006908A10006308131A92176
:10069000F8002108F9002100301020000C12210080
:1006A0000C120C302000B6000030B8002030B4002E
:1006B0000C30B7000030B9000430B5000130B30091
:1006C0007808A0007908A1000B3081310F212100AA
:1006D00034082000A000A101073081310F21210042
:1006E0000030301801302000A000A101013081311C
:1006F0000F210C1621000C12301420000C122100C6
:100700000C120C302000B6000030B8002030B400CD
:100710000C30B7000030B9000430B5000130B30030
:100720000130A000A101013081310F218030A000F3
:100730000230A1000E3081310F212100003030182D
:1007400001302000A000A101013081310F210C16E1
:1007500021000C122000080021000E1423000E14AA
:1007600020008431BF2C2100B0103011B0110430B2
:10077000200081314A21DC002108DD005C08A00056
:100780005D08A1000330A300E8308131B421843139
:10079000031D8D2C2100AB012000640006302100D8
:1007A0002B02833120000318FB2B5C08A0005D089E
:1007B000A1000330A300E8308131BF218331031D44
:1007C000E82B043081314A21DC002108DD00ED33C3
:1007D00021002B3584008501850D503084070030C1
:1007E000853D20005C081A005D0880002100AB0AEE
:1007F0002000031DD23350085207FC005108533D1E
:10080000FD005408FC075508FD3D5608FC07570835
:10081000FD3D5808FC075908FD3D7C085A07DC00DF
:100820007D085B3DDD005C08A0005D08A10006308E
:10083000A200A3018131ED21DC002108DD005C086C
:10084000A0005D08A100A301BE308131B821FC00E9
:100850005C08A0005D08A1000130A30022308131B6
:10086000BF21FE007C0884007E088131D421FE0077
:10087000FF0064007E087F0484310319432C2100AB
:10088000B014200008005C08A0005D08A10003303F
:10089000A30002308131B821FC005C08A0005D0893
:1008A000A1000330A30066308131BF21FE007C0827
:1008B00084007E088131D421FE00FF0064007E08A0
:1008C0007F0484310319682C2100301520000800B2
:1008D0005C08A0005D08A1000230A3003130813126
:1008E000B821FC005C08A0005D08A1000230A30054
:1008F00095308131BF21FE007C0884007E08813163
:10090000D421FE00FF0064007E087F0484310319B7
:100910008D2C2100B0152000080008008331B3237E
:1009200003012100B018FF302000FC00030121006A
:100930003019FF302000FE007C0884007E088131E1
:10094000DB21FE00FF0003012100B019FF30A000F1
:1009500020007E087F0484002100200820008131CF
:10096000DB212100A000A1006400200821048431C3
:1009700020000319BE2C8331B323D2330800013089
:10098000FA00FB01EE01EF0121000130B600033057
:10099000B50035082000F400F501F601F701F20179
:1009A000F30121000130B300A501A601200096311A
:1009B000532689310B21C830813178219431BF24ED
:1009C0008831D3200530A300DC3081317921833197
:1009D000B3236400853121008310B01D83142000EF
:1009E00083180F2D210025082000FA00FB012100AB
:1009F0002608B60064002508FF3C85312000031D51
:100A00000D2DFA01FB012100B6012000E930E800BC
:100A10000330E9002100B20120008531512DFF3063
:100A2000A000FF30A1006908A30068088131C2213D
:100A30008531031D2B2DEE01EF01FA01FB01210091
:100A4000B201B6012000E930E8000330E900853149
:100A5000512D8531512DFA01FB012100B6010330E2
:100A6000B500301220008C3123248C31EF2421007A
:100A7000B5012000640003302100350285312000DB
:100A80000318492D913189212100B50A2000031D49
:100A9000F1339231F02283311D239631B026853116
:100AA0008E2D8C3123248C31CE2421003012B501BF
:100AB0002000640003302100350285312000031836
:100AC000682D913189212100B50A2000031DF133E1
:100AD0003A30AA00AB01FE308031032090308031E3
:100AE0000320FE30803103200F308031032082311B
:100AF000A12284318E240330F400F501F601F701C0
:100B00000330F200F30121000130B300B0160330CE
:100B1000B5009030B100200086317E2E8331B323A2
:100B20006400853121008310B01D831420008318D8
:100B30009F2D2100A201A30120008731B6272100AB
:100B4000A201A301640085318310301E83142000AC
:100B50008318E72D883148207208A0007308A1008F
:100B60002100320820008131AE218531031DE72D9F
:100B70002100E230B10020009131F82172082100FB
:100B8000B20032082000A600A7010F30A200A30186
:100B900082310522FC002508FD007C08A0007D08AC
:100BA000A1006430A200A3018131ED21FC002108E5
:100BB000FD0010307C07EE0000307D3DEF006E0838
:100BC00022009900A0309800200084318E24640017
:100BD000853121008310301A831420008318F22DF0
:100BE00095318E257A08A0007B08A10021002508F8
:100BF00020008131B321FC0003012100301EFF30B1
:100C00002000FE007C0884007E088131D421FE0093
:100C1000FF0064007E087F0486310319132E96318D
:100C2000A9268D317D2D210036082000A00021004D
:100C3000260820008131B221FC0003012100301E72
:100C4000FF302000FE007C0884007E088131D42122
:100C5000FE00FF0064007E087F0486310319342EF5
:100C60009631A9268D317D2D2100360820007A0786
:100C7000FC0003017B3DFD007008FC077108FD3D91
:100C8000210037082000FC070318FD0A6608A000B1
:100C90006708A1007D08A3007C088131AF2186315F
:100CA000031D7D2E2100360820007A07FC00030179
:100CB0007B3DFD007008FC077108FD3D21003708F1
:100CC00020007C07E60003017D3DE70021000130A4
:100CD000B500200064000430210035028631200078
:100CE0000318792E913189212100B50A2000031DB6
:100CF000F1339231F02284318E2410338331B323C7
:100D00008831482072082100B500640035082902A6
:100D1000863120000319B32E21003508A9003508BB
:100D2000033C86312000031CA42E2100350820003E
:100D300086319F262100B10020008631A42E0B00B1
:100D4000E034A634CF3490343A30AA00AB01FE3000
:100D500080310320210031082000803103208231BE
:100D6000A12284318E246400873121008310B01DBC
:100D7000831420008318702F3A30AA00AB01FE3094
:100D80008031032021003108200080310320FE3013
:100D9000803103200E30803103208231A122640093
:100DA00021003508033C86312000031DF32E68081E
:100DB000F2006908F3003830F4000430F5006630C2
:100DC000F6000330F70021000130B300B01220001C
:100DD00084318E24873171277208E8007308E90096
:100DE0000330F200F301640021003508023C873132
:100DF0002000031D152F210036082000F200F3010A
:100E00005030F400F501F601F70121000530B30080
:100E1000B016200084318E2487317127720821009A
:100E2000B60020000230F200F30164002100350812
:100E3000013C87312000031D362F7A08F2007B0821
:100E4000F3001930F400F501F601F701210002303A
:100E5000B300B012200084318E24873171277208CC
:100E6000FA007308FB000130F200F3016400210076
:100E70003508003C87312000031D702F96317F26F6
:100E800096315326210030122000E601E7018C3113
:100E900023248C31EF242100B501200064000330AD
:100EA000210035028731200003185D2F91318921FF
:100EB0002100B50A2000031DF13321003208200073
:100EC000F200F3012100E230B10020009131F8215D
:100ED00083311D239631B02684318E2485318E2DA9
:100EE0000D338331B323883148207208A000730882
:100EF000A1006508A30064088131AF218731031D7B
:100F0000892F7208E4007308E5009131F8218431DB
:100F10008E246400873121008310B01D83142000CB
:100F20008318B52F21002908B50020003A30AA0007
:100F3000AB01FE30803103202100310820008031D8
:100F40000320FE30803103200F30803103208231B6
:100F5000A1220330F400F501F601F7012100013070
:100F6000B300200084318E240800BB336400883134
:100F700021008310B01D83142000831847286400CB
:100F8000873121008310301E831420008318E42F42
:100F90003A30AA00AB01FE30803103200C308031A2
:100FA00003208231A122230005309100920121000B
:100FB000320820008131682121003012A201A301F2
:100FC000200084318E2408006400883121008310C1
:100FD000B01D83142000831843288331B3230A30C3
:100FE000813178212100A20A0319A30A22082000D6
:100FF000A000210023082000A100A301DC308131E2
:10100000BF218831031D30283A30AA00AB01FE30E1
:1010100080310320E23080310320FE308031032014
:101020000F3080310320FE3080310320E2308031E8
:1010300003208231A1222100E230B10032082000D9
:10104000F200F3016430F400F501F601F70121002C
:101050000230B300B016301620008D313025080064
:10106000210022082000A000210023082000A10068
:101070000230A30008308131BF218831031D42288E
:101080008B312923A1332100A201A30120000800F4
:101090006400883121008310301D831420008318E0
:1010A0008D287208A0007308A1007708A3007608B5
:1010B0008131BB21FC0003012100B01AFF30200068
:1010C000FE007C0884007E088131D421FE00FF00F0
:1010D00064007E087F048831031976287608F200C0
:1010E0007708F30050308131782108007208A000A1
:1010F0007308A1007708A30076088131B8218831F0
:10110000031D87287408F2007508F3000800210009
:1011100033082000F202031CF3036400883121002D
:101120008310B01C831420008318D2287208A000FA
:101130007308A1007508A30074088131B421FC0074
:1011400003012100B01AFF302000FE007C0884005B
:101150007E088131D421FE00FF0064007E087F04F8
:1011600088310319BB287408F2007508F300503069
:101170008131782108007208A0007308A100750869
:10118000A30074088131BF218831031DCC28760863
:10119000F2007708F3000800210033082000F2076E
:1011A0000318F30A08003A30AA00AB01FE30803180
:1011B00003200130803103208231A1220A308131A5
:1011C00078213A30AA00AB01FE30803103209930FB
:1011D00080310320423080310320493080310320A8
:1011E0004530803103204E3080310320563080312D
:1011F00003204530803103204E30803103204930B8
:10120000803103204430803103204F30803103206F
:101210008231A12208003A30AA00AB01FE308031B1
:1012200003200130803103208231A1220A30813134
:1012300078213A30AA00AB01FE30803103204030E3
:1012400080310320013080310320023080310320BF
:101250000630803103200430803103200C3080318F
:1012600003200830803103201930803103201B30E7
:10127000803103208231A1223A30AA00AB01FE3036
:10128000803103204830803103200030803103203A
:10129000003080310320003080310320083080315D
:1012A00003201030803103201030803103200130C2
:1012B000803103200B30803103208231A1223A306B
:1012C000AA00AB01FE308031032050308031032072
:1012D0000030803103200030803103200030803125
:1012E000032002308031032001308031032001309F
:1012F000803103201030803103201A3080310320E8
:101300008231A1223A30AA00AB01FE3080310320A5
:101310005830803103201030803103200830803174
:1013200003200C308031032004308031032006304C
:1013300080310320033080310320133080310320BB
:101340001B30803103208231A1223A30AA00AB0148
:10135000FE30803103206030803103201B3080312B
:1013600003201930803103200830803103200C30F5
:101370008031032004308031032006308031032087
:101380000230803103200130803103208231A122DC
:101390003A30AA00AB01FE30803103206830803142
:1013A00003200B30803103200130803103201030C6
:1013B000803103201130803103200B308031032035
:1013C0000330803103200730803103200F3080311B
:1013D00003208231A1223A30AA00AB01FE308031D5
:1013E00003207030803103201A3080310320103008
:1013F00080310320013080310320113080310320FF
:101400001A30803103201830803103201C308031A5
:1014100003201E30803103208231A1223A30AA00FD
:10142000AB01FE30803103207830803103201B3047
:1014300080310320133080310320023080310320BB
:101440000630803103200430803103200C3080319D
:101450000320083080310320103080310320823196
:10146000A1223A30AA00AB01FE30803103200130C6
:10147000803103208231A1220A30813178213A3033
:10148000AA00AB01FE308031032080308031032080
:101490000030803103200130803103200230803160
:1014A0000320033080310320FE3080310320C03020
:1014B0008031032004308031032005308031032047
:1014C0000630803103200730803103208231A12291
:1014D0002100A401200064000730210024028A3189
:1014E00020000318862A3A30AA00AB01FE30803172
:1014F00003201C30803103208231A12264308131ED
:1015000078212100A40A2000031DE5333A30AA0007
:10151000AB01FE3080310320103080310320823156
:10152000A122053081317821643081317821210078
:101530005030AF0020003A30AA00AB01FE308031BD
:1015400003208E30803103204A30803103202D303B
:101550008031032054308031032045308031032016
:101560004C308031032045308031032043308031BE
:1015700003205430803103205230803103204F301B
:10158000803103204E3080310320493080310320E8
:1015900043308031032027308031032053308031A5
:1015A00003208231A1223A30AA00AB01FE30803103
:1015B0000320CD3080310320773080310320773015
:1015C000803103207730803103202E30803103209A
:1015D00072308031032061308031032064308031EB
:1015E00003206930803103206F3080310320653063
:1015F000803103206E30803103206C308031032035
:1016000061308031032063308031032065308031C8
:1016100003202E30803103206330803103206C3072
:10162000803103208231A1222100AF0120003A3015
:10163000AA00AB01FE30803103201C308031032032
:10164000FE30803103201030803103208231A1220E
:1016500008003A30AA00AB01FE308031032001308F
:10166000803103208231A1220A30813178213A3041
:10167000AA00AB01FE30803103208030803103208E
:101680004530803103205330803103205430803185
:1016900003204F30803103202030803103204C3034
:1016A000803103204F3080310320203080310320EF
:1016B0004830803103204930803103205A30803156
:1016C00003204F30803103202030803103208231CD
:1016D000A1223A30AA00AB01FE3080310320C03095
:1016E000803103205230803103204130803103208B
:1016F0004430803103204930803103204F30803125
:1017000003204D308031032041308031032052309E
:10171000803103204330803103208231A1223A30CE
:10172000AA00AB01FE3080310320943080310320C9
:101730004C30803103204130803103204E308031E5
:1017400003204330803103204F308031032020308C
:10175000803103202D308031032020308031032060
:1017600032308031032030308031032032308031FC
:1017700003203530803103208231A1223A30AA0083
:10178000AB01FE3080310320D43080310320533050
:1017900080310320493080310320543080310320D0
:1017A000453080310320543080310320493080316E
:1017B00003205A30803103204130803103204430EF
:1017C000803103204F30803103205230803103209C
:1017D0008231A12284318E243A30A30098308131A5
:1017E0007921080096315326210030122000E601AD
:1017F000E7018C3123248C31EF242100B501200036
:1018000064000330210035028C31200003180F2CB6
:10181000913189212100B50A2000031DF1332100F7
:1018200032082000F200F3012100E230B100200074
:101830009131F82184318E2421003012A201A301BC
:10184000200085318E2D3A30AA00AB01FE30803168
:1018500003200130803103208231A1220A308131FE
:1018600078213A30AA00AB01FE308031032080306D
:1018700080310320463080310320523080310320F4
:101880004530803103204330803103205530803192
:1018900003204530803103204E3080310320433017
:1018A00080310320493080310320413080310320D2
:1018B0003A3080310320FE30803103208F30803178
:1018C00003202E30803103202030803103204D3022
:1018D000803103204830803103205A30803103208A
:1018E0008231A1223A30AA00AB01FE3080310320C0
:1018F000C0308031032054308031032045308031A6
:1019000003204D308031032050308031032045309A
:101910008031032052308031032041308031032058
:1019200054308031032055308031032052308031D3
:1019300003204130803103203A3080310320FE30D3
:1019400080310320D03080310320DF30803103200C
:101950004330803103208231A1223A30AA00AB010A
:10196000FE3080310320A03080310320523080319E
:1019700003204F30803103204530803103203A303E
:1019800080310320FE3080310320A73080310320D6
:101990005730803103208231A12208003A30AA005A
:1019A000AB01FE3080310320DA308031032041303A
:1019B00080310320433080310320453080310320C3
:1019C0005030803103205430803103204130803149
:1019D00003205230803103208231A12208003A30A6
:1019E000AA00AB01FE308031032094308031032007
:1019F0005030803103205730803103204F30803108
:101A000003203A3080310320FE30803103209D30A6
:101A10008031032057308031032020308031032073
:101A20002030803103208231A1220A308131782197
:101A30003A30AA00AB01FE3080310320D43080312F
:101A400003205630803103204F30803103204C304A
:101A5000803103203A30803103208231A1220800F6
:101A60003A30AA00AB01FE308031032001308031D2
:101A700003208231A1220A30813178213A30AA0034
:101A8000AB01FE3080310320D4308031032041305F
:101A9000803103204A3080310320553080310320CB
:101AA0005330803103205430803103204530803161
:101AB00003202030803103205030803103204F300C
:101AC000803103205730803103203A3080310320A9
:101AD000FE3080310320E23080310320203080311D
:101AE0000320253080310320FE30803103200C306C
:101AF000803103208231A12208003A30AA00AB01D4
:101B0000FE30803103200130803103208231A12258
:101B10000A30813178213A30AA00AB01FE308031A1
:101B200003208730803103204130803103204C3046
:101B30008031032041308031032052308031032036
:101B40004D30803103204130803103208231A12289
:101B50007A08A0007B08A10021002508200081311F
:101B6000BE218D31031DD92D3A30AA00AB01FE30C4
:101B700080310320C93080310320A9017A08A400F4
:101B80007B08A5000230B000B1018031E020573061
:101B900080310320FE3080310320DC30803103208F
:101BA0005230803103204F30803103204530803166
:101BB00003208231A12264002100260836028E31E2
:101BC0002000031C242E3A30AA00AB01FE308031E5
:101BD0000320C93080310320A901210036082000EC
:101BE000A400A5010230B000B1018031E020DF3057
:101BF00080310320433080310320FE3080310320C8
:101C0000D930803103205430803103204530803179
:101C100003204D3080310320503080310320453087
:101C20008031032052308031032041308031032045
:101C300054308031032055308031032052308031C0
:101C400003204130803103208231A1223A30AA00A2
:101C5000AB01FE308031032040308031032004305E
:101C60008031032002308031032001308031032095
:101C70000030803103201030803103200830803163
:101C80000320043080310320003080310320823172
:101C9000A1223A30AA00AB01FE3080310320483047
:101CA0008031032001308031032003308031032054
:101CB000023080310320063080310320043080312F
:101CC00003200D3080310320193080310320113082
:101CD000803103208231A1223A30AA00AB01FE30CC
:101CE00080310320503080310320103080310320B8
:101CF0001830803103200830803103200C308031CF
:101D0000032004308031032016308031032013304B
:101D1000803103201130803103208231A1223A30FA
:101D2000AA00AB01FE3080310320583080310320FF
:101D3000043080310320083080310320103080319E
:101D40000320003080310320013080310320023035
:101D500080310320043080310320003080310320A3
:101D60008231A1223A30AA00AB01FE30803103203B
:101D70006030803103201130803103200B308031FE
:101D800003200630803103200C30803103200830DE
:101D9000803103201830803103201030803103203F
:101DA0001F30803103208231A1223A30AA00AB01DA
:101DB000FE308031032068308031032001308031D3
:101DC00003200130803103200030803103200330B4
:101DD0008031032003308031032003308031032021
:101DE0000030803103201F30803103208231A12256
:101DF0003A30AA00AB01FE308031032070308031D0
:101E00000320103080310320103080310320003057
:101E100080310320183080310320183080310320B6
:101E20001830803103200030803103201F30803192
:101E300003208231A1223A30AA00AB01FE3080316A
:101E400003207830803103201130803103201A3094
:101E5000803103200C308031032006308031032094
:101E60000230803103200330803103200130803183
:101E700003201F30803103208231A1223A30AA0092
:101E8000AB01FE30803103208030803103200030F0
:101E90008031032001308031032002308031032063
:101EA000033080310320FE3080310320C030803188
:101EB00003200430803103200530803103200630B8
:101EC000803103200730803103208231A1223A3053
:101ED000AA00AB01FE308031032090308031032016
:101EE0000030803103200130803103200230803106
:101EF0000320033080310320FE3080310320D030B6
:101F000080310320043080310320053080310320EC
:101F10000630803103200730803103208231A12236
:101F20000230A300583081317921ED113A30AA00F6
:101F3000AB01FE30803103200C3080310320823130
:101F4000A1227F30A2005030A000A1010E308400F9
:101F50000030850004308031BD20FA308131782195
:101F6000ED153A30AA00AB01FE30803103200C3071
:101F7000803103208231A1227F30A2005030A000A6
:101F8000A1010E3084000030850004308031BD2076
:101F9000323081317821ED113A30AA00AB01FE30A8
:101FA000803103200C30803103208231A1227F3028
:101FB000A2005030A000A1010E3084000030850046
:101FC00004308031BD20FA3081317821ED153A306E
:101FD000AA00AB01FE30803103200C308031032099
:101FE0008231A1223A30AA00AB01FE3080310320B9
:101FF000C6308031032020308031032020308031F2
:102000000320203080310320203080310320203015
:1020100080310320203080310320203080310320A4
:102020002030803103202030803103208231A122F2
:102030003A30AA00AB01FE308031032040308031BD
:102040000320003080310320003080310320003035
:1020500080310320003080310320003080310320A4
:102060000030803103200030803103200030803187
:1020700003208231A1223A30AA00AB01FE30803128
:1020800003204830803103200130803103200330A9
:10209000803103200230803103200630803103205C
:1020A0000430803103200C3080310320183080311F
:1020B00003201030803103208231A1223A30AA005F
:1020C000AB01FE30803103205030803103201030CE
:1020D0008031032018308031032008308031032004
:1020E0000C308031032004308031032006308031F1
:1020F00003200330803103200130803103208231FE
:10210000A1223A30AA00AB01FE30803103205830C2
:1021100080310320003080310320003080310320E3
:1021200000308031032000308031032000308031C6
:102130000320003080310320003080310320003044
:10214000803103208231A1223A30AA00AB01FE3057
:102150008031032060308031032001308031032042
:102160000330803103200630803103200C30803171
:1021700003200830803103201830803103201030D4
:10218000803103201F30803103208231A1223A3078
:10219000AA00AB01FE30803103206830803103207B
:1021A0000030803103200030803103200030803146
:1021B00003200030803103200030803103200030C4
:1021C000803103200030803103201F308031032014
:1021D0008231A1223A30AA00AB01FE3080310320C7
:1021E0007030803103200030803103200030803196
:1021F0000320003080310320003080310320003084
:1022000080310320003080310320003080310320F2
:102210001F30803103208231A1223A30AA00AB0165
:10222000FE3080310320783080310320103080313F
:1022300003201830803103200C3080310320063019
:1022400080310320023080310320033080310320AD
:102250000130803103201F30803103208231A122E0
:102260003A30AA00AB01FE3080310320803080314B
:102270000320003080310320013080310320023000
:1022800080310320033080310320FE308031032071
:10229000C03080310320043080310320053080318C
:1022A0000320063080310320073080310320823143
:1022B000A1223A30AA00AB01FE30803103209030D9
:1022C0008031032000308031032001308031032031
:1022D000023080310320033080310320FE30803112
:1022E0000320D030803103200430803103200530BA
:1022F00080310320063080310320073080310320F5
:102300008231A1220230A3005830813179218D31F0
:102310007D2D640021003508003C91312000031D13
:102320009B296808F2006908F30021009030B10091
:1023300020009131F829640021003508013C9131D9
:102340002000031DAE29210036082000F200F30111
:102350002100CF30B10020009131F8296400210024
:102360003508023C91312000031DC0297A08F20093
:102370007B08F3002100A630B10020009131F8293C
:10238000640021003508033C91312000031DD2294F
:102390007008F2007108F30021009C30B1002000A9
:1023A0009131F82921003508043C031DFF30FF3A24
:1023B0002000FC0003012100301AFF302000FE0045
:1023C0007C0884007E088131D421FE00FF00640077
:1023D0007E087F0491310319F8292100320820007A
:1023E000F200F3012100E230B10020009131F82920
:1023F0007208A0007308A100A3010A308131B42142
:102400009231031D082A2100AE01200092313D2A9D
:102410007208A0007308A100A30164308131B421C7
:102420009231031D192A21000130AE0020009231A3
:102430003D2A7208A0007308A1000330A300E83011
:102440008131B4219231031D2B2A21000230AE00CC
:10245000200092313D2A7208A0007308A1002730A5
:10246000A30010308131B4219231031D3D2A210097
:102470000330AE00200092313D2A64002100310873
:10248000903C92312000031DB32A3A30AA00AB01E0
:10249000FE30803103200430210031022000FC0096
:1024A000FD010030FD3B7C0880310320203080316D
:1024B0000320203080310320203080310320203061
:1024C00080310320203080310320FE308031032012
:1024D00021002E0831022000FC00FD01031CFD0339
:1024E0000130FC020030FD3B7C0880310320A90153
:1024F0007208A0007308A1000A30A200A301813174
:10250000ED21FC002108FD007C08A4007D08A50049
:102510000230B000B1018031E0202E308031032044
:10252000A9017208A0007308A1000A30A200A3014B
:102530008131ED212408FC002508FD007C08A40061
:102540007D08A5000230B000B1018031E020FE30EE
:1025500080310320210031082000803103208231A6
:10256000A1229231EF2A3A30AA00AB01FE3080312D
:1025700003200230210031022000FC00FD01003068
:10258000FD3B7C0880310320203080310320203047
:1025900080310320203080310320FE308031032041
:1025A00021002E0831022000FC00FD01031CFD0368
:1025B0007C0880310320A9017208A4007308A500DB
:1025C0000230B000B1018031E020FE3080310320C4
:1025D000210031082000803103208231A12208002F
:1025E0005A08A0005B08A1002100370820008131B3
:1025F000AE219431031DBC2C3A30AA00AB01FE3051
:1026000080310320403080310320003080310320AE
:1026100010308031032010308031032010308031A1
:10262000032010308031032010308031032010301F
:10263000803103200030803103208231A1223A30E2
:10264000AA00AB01FE3080310320483080310320E6
:102650000030803103201830803103201830803161
:1026600003201830803103201830803103201830C7
:102670008031032018308031032000308031032066
:102680008231A1223A30AA00AB01FE308031032012
:102690005030803103200030803103201C308031E5
:1026A00003201C30803103201C30803103201C307B
:1026B000803103201C30803103201C308031032006
:1026C0000030803103208231A1223A30AA00AB01D0
:1026D000FE308031032058308031032000308031BB
:1026E00003201E30803103201E30803103201E3035
:1026F000803103201E30803103201E3080310320C2
:102700001E30803103200030803103208231A1222D
:102710003A30AA00AB01FE308031032060308031B6
:1027200003200030803103201F30803103201F3010
:10273000803103201F30803103201F30803103207F
:102740001F30803103201F30803103200030803162
:1027500003208231A1223A30AA00AB01FE30803141
:1027600003206830803103201230803103201B3079
:102770008031032000308031032004308031032079
:102780001130803103200E30803103200030803141
:1027900003200030803103208231A1223A30AA0088
:1027A000AB01FE30803103207030803103200030D7
:1027B000803103201B308031032009308031032019
:1027C0000430803103200030803103200E3080310E
:1027D000032011308031032000308031032082310A
:1027E000A1223A30AA00AB01FE30803103207830BC
:1027F000803103201F30803103200A3080310320D4
:102800001F30803103200A30803103201F30803197
:1028100003200A30803103201F308031032015301F
:10282000803103208231A122210037082000DA0004
:10283000DB012100D830A80064000B30370294314E
:102840002000031C572C0130DE00DF012100370877
:102850002000A000A1010A30A200A3018131ED21D6
:10286000FC002108FD005E08A0005F08A1007D08B3
:10287000A3007C088131B8219431031D572C3A30D4
:10288000AA00AB01FE30803103202100280820007F
:10289000803103200430803103208231A1222100C5
:1028A000A80A2000DE0A0319DF0A031DCF336400E3
:1028B00003302100370294312000031C7D2C2100BD
:1028C00037082000A000A1010530A200A30181313A
:1028D000ED212408E0002508E1003A30AA00AB0110
:1028E000FE308031032021002808200080310320A1
:1028F0006008803103208231A122210037082000A6
:10290000A000A1010A30A200A3018131ED21210024
:10291000B7003708103CB70020000130DE00DF01AF
:102920005E08A0005F08A100210037082000813167
:10293000B7219431031DB82C21001430AA00A80A35
:1029400020003A30AA00AB01FE3080310320210084
:10295000280820008031032021002A08200080312F
:1029600003208231A122DE0A0319DF0A031DD833B6
:102970005A082100B700200008006400FE33ED1162
:102980003A30AA00AB01FE30803103200C30803198
:1029900003208231A1227F30A2006430A000A10177
:1029A0000E3084000030850004308031BD2064305A
:1029B00081317821ED153A30AA00AB01FE3080312B
:1029C00003200C30803103208231A1227F30A2000D
:1029D0009630A000A1010E30840000308500043044
:1029E0008031BD20643081317821ED113A30AA0068
:1029F000AB01FE30803103200C3080310320823166
:102A0000A1227F30A200C830A000A1010E308400B6
:102A10000030850004308031BD209630813178212E
:102A2000ED153A30AA00AB01FE30803103200C30A6
:102A3000803103208231A1227F30A200FA30A00031
:102A4000A1010E3084000030850004308031BD20AB
:102A5000C83081317821ED113A30AA00AB01FE3047
:102A6000803103200C30803103208231A1227F305D
:102A7000A2002C30A0000130A1000E3084000030F4
:102A8000850004308031BD200130A3002C3081311D
:102A90007921ED153A30AA00AB01FE3080310320D8
:102AA0000C30803103208231A1227F30A2005030CF
:102AB000A000A1010E308400003085000430803178
:102AC000BD20643081317821ED113A30AA00AB018C
:102AD000FE30803103200C30803103208231A1226E
:102AE0007F30A2005030A000A1010E3084000030E1
:102AF000850004308031BD200130A3002C308131AD
:102B00007921ED153A30AA00AB01FE308031032067
:102B10000C30803103208231A12208000E30B60033
:102B20000030B8000830B40001308031A420CC302F
:102B3000803184204430803184208031A1200230D3
:102B4000A300F830813179210E30B6000030B80092
:102B50000830B40001308031A420CC308031842092
:102B6000BE30803184208031A1200E30B60000308C
:102B7000B8000830B40000308031A4200930A9002A
:102B80006230B000B1018701B6308031D820803189
:102B9000A120210036082000A000A10104308131CD
:102BA000A921FC00FD01210037082000A000A1019F
:102BB00004308131A221FE002108FF007C087E0440
:102BC0002100B60064003608553C95312000031DF5
:102BD000EC2D2100B6012000063081314A21210070
:102BE000B7006400A030370295312000031CFC2D93
:102BF0002100A030B7002000013081314A21FA00C5
:102C00002108FB007A08A6007B08A7000E30A2006E
:102C1000A30182310522FA002508FB007A08A000F2
:102C20007B08A1000A30A200A3018131ED21FA0046
:102C30002108FB00A001A1017B08A3007A088131D3
:102C4000C2219631031D272E0130FA00FB01053009
:102C500081314A21F0002108F1007008A6007108B6
:102C6000A7000E30A200A30182310522F000250842
:102C7000F1007008A0007108A1000A30A200A301B1
:102C80008131ED21F0002108F100A001A1017108BE
:102C9000A30070088131C2219631031D522E0130EC
:102CA000F000F10108002300910192012000813120
:102CB0005F21E80023000130910092012000813162
:102CC0005F21E9002300033091009201200081314F
:102CD0005F212100A5002300043091009201200013
:102CE00081315F212100A60023000530910092016F
:102CF000200081315F212100B20020000800230064
:102D0000910192012000680881316821230001307F
:102D1000910092012000690881316821230003306D
:102D20009100920120007A0881316821230004304B
:102D30009100920121003608200081316821230092
:102D40000530910092012100320820008131682174
:102D50000800220098010A30200081317821080003
:102D6000210032082000A600A7011F30A200A30105
:102D700082310522FC002508FD007C08A0007D08AA
:102D8000A1006430A200A3018131ED21EE002108F1
:102D9000EF006E08220099000A302000813178216E
:102DA0002200A03098000A302000813178210800EC
:020000040001F9
:02000E00A4C983
:02001000FFDD12
:00000001FF
